:020000040800F2
:10000000E80F0020C9010008FB160008C915000808
:10001000F9160008330300089F30000800000000B4
:10002000000000000000000000000000FF190008B0
:100030003503000800000000FD190008011A00083F
:10004000E3010008E3010008E3010008E301000800
:10005000E3010008E3010008E3010008E3010008F0
:10006000E3010008E3010008E3010008E3010008E0
:10007000E3010008E3010008E3010008E3010008D0
:10008000E3010008E3010008E3010008E3010008C0
:100090002D300008E3010008E3010008E301000837
:1000A000E3010008E3010008E3010008E3010008A0
:1000B000E3010008E3010008E3010008E301000890
:1000C000E3010008E3010008E3010008E301000880
:1000D000E3010008E3010008E3010008E301000870
:1000E000E3010008E3010008E301000800F002F862
:1000F00000F05AF80AA090E8000C82448344AAF168
:100100000107DA4501D100F04FF8AFF2090EBAE865
:100110000F0013F0010F18BFFB1A43F0010318473B
:10012000F8300000183100000A444FF0000C10F8BD
:10013000013B13F0070408BF10F8014B1D1108BF65
:1001400010F8015B641E05D010F8016B641E01F805
:10015000016BF9D113F0080F1EBF10F8014BAD1C55
:100160000C1B09D16D1E58BF01F801CBFAD505E073
:1001700014F8016B01F8016B6D1EF9D59142D6D3CD
:10018000704700000023002400250026103A28BFF5
:1001900078C1FBD8520728BF30C148BF0B607047F9
:1001A0001FB51FBD10B510BD00F08AF81146FFF74E
:1001B000F7FF02F0FFFF00F0A8F803B4FFF7F2FF2B
:1001C00003BC00F0AFF80000094880470948004729
:1001D000FEE7FEE7FEE7FEE7FEE7FEE7FEE7FEE7F7
:1001E000FEE7FEE704480549054A064B7047000054
:1001F0007B1A0008ED000008E8090020E80F002045
:10020000E80B0020E80B002010B5203AC0F00B806E
:10021000B1E81850203AA0E81850B1E81850A0E80A
:100220001850BFF4F5AF5FEA027C24BFB1E8185064
:10023000A0E8185044BF18C918C0BDE810405FEAD4
:10024000827C24BF51F8043B40F8043B08BF704750
:10025000D20728BF31F8023B48BF11F8012B28BF55
:1002600020F8023B48BF00F8012B70474FF0000216
:1002700000B5134694469646203922BFA0E80C509C
:10028000A0E80C50B1F12001BFF4F7AF090728BF77
:10029000A0E80C5048BF0CC05DF804EB890028BFF3
:1002A00040F8042B08BF704748BF20F8022B11F01C
:1002B000804F18BF00F8012B704770477047704798
:1002C000754600F02BF8AE4605006946534620F00F
:1002D0000700854618B020B5FFF784FFBDE8204031
:1002E0004FF000064FF000074FF000084FF0000BF2
:1002F00021F00701AC46ACE8C009ACE8C009ACE8A5
:10030000C009ACE8C0098D46704710B50446AFF38C
:1003100000802046BDE81040FFF74FBF00487047FF
:100320008809002001491820ABBEFEE72600020024
:100330007047FEE7704772B6FEE7000070B50446EE
:1003400000F0FEF80546601C02D004480078044422
:1003500000F0F6F8401BA042FAD370BDB4000020B4
:100360002DE9F84FDFF8A491002409F1040A0AF1FD
:10037000040B23464FF00F080BF1040EBEE00127DB
:10038000A7403A40BA4272D1DFF884C14D68A5EB6C
:100390000C0665452BD00DDC032D34D005DC35B3C0
:1003A000012D19D0022D2FD11BE0112D16D0122DA9
:1003B0002AD119E0B6F5881F19D006DCB6F5803FC2
:1003C00015D0B6F5801F1FD111E0B6F5001F0ED075
:1003D000B6F5041F18D10AE0CB6815E0CB681B1DE9
:1003E00012E0CB6808330FE0CB680C330CE08B686D
:1003F0002BB1012B4FF0080303D0476104E0042325
:1004000002E0076100E00023FF2A01D8064601E070
:1004100000F104064FEA840501D9A5F120053768EB
:1004200008FA05FC27EA0C0703FA05F547EA050771
:1004300037604D68ED0060D5364DAE6946F0010677
:10044000AE61AD6924F0030605F001050095324D5B
:100450007719BE68A5072D0F08FA05FC26EA0C06D9
:10046000DFF8B8C0604503D14FF0000C17E044E05E
:10047000DFF8ACC0604502D14FF0010C0FE0DFF8AF
:10048000A4C0604502D14FF0020C08E0DFF898C02C
:10049000604502D14FF0030C01E04FF0040C0CFA60
:1004A00005FC4CEA060CC7F808C04D68D9F8006096
:1004B000ED034D4601D5164300E096432E604D688E
:1004C000DAF80060AD03554601D5164300E09643C7
:1004D0002E604D68DBF80060ED025D4601D51643E5
:1004E00000E096432E604D68DEF80060AD02754670
:1004F00001D5164300E096432E60641C0A6832FA68
:1005000004F57FF43CAFBDE8F88F00000004014023
:1005100000001110001002400000014000080140DE
:10052000000C0140001001400014014080680840A8
:1005300000D0012070470AB1016170470904FBE750
:100540000148806870470000B400002002488168BC
:100550000278114481607047B4000020074810B54C
:10056000016841F010010160032000F075F80F20D0
:1005700000F006F800F024F8002010BD0020024032
:1005800070B50D4D04464FF47A712878B1FBF0F048
:100590000A490968B1FBF0F001F002F848B9102CE3
:1005A00007D200222146501E00F036F800206C6071
:1005B00070BD012070BD0000B4000020C00000200C
:1005C0000C4808B5816941F001018161816901F040
:1005D00001010091C16941F08051C161C0690649C2
:1005E00000F080500090486820F0E06040F000701B
:1005F000486008BD0010024000000140002809DBEF
:1006000000F01F02012191404009800000F1E0202C
:10061000C0F8001170470000F0B40E4B1B68C3F324
:100620000223C3F10704042C00D904241D1D072D47
:1006300001D2002300E0DB1E012606FA04F56D1E40
:100640000D409D409E40761E164045EA0601F0BCD6
:1006500002F026BD0CED00E0064A00F0070110682C
:100660004FF6FF03184040EA012003490843106099
:10067000704700000CED00E00000FA0510B50C0614
:1006800007D501F0070101EB810100EBC100283023
:1006900005E001EB810100EBC10000F5B47099B2F7
:1006A00032B1012202730181190C4181002010BD79
:1006B00000220273C180F9E7704701EB810200EB71
:1006C000C202D0F8E802D26B01F013BC01EB810248
:1006D00000EBC202D0F8E802D2F87C2101F06CBC39
:1006E00070B504460B0601F0070000EB800104EB37
:1006F000C1014FF001024FF0000503D581F8292018
:10070000283103E081F8695101F5B471087094F85B
:10071000A802012808D084F8A822206802F087F8EF
:1007200084F8A852002070BD022070BD70B5044648
:1007300001F00F006268904201D9012070BD0B06E4
:1007400001F0070000EB800104EBC1014FF0010252
:100750004FF0000503D581F82920283103E081F806
:10076000695101F5B4718D70087094F8A8020128E0
:1007700008D084F8A822206802F0F7F884F8A8527C
:10078000002070BD022070BD2DE9F05F04685704A1
:100790000B788D69B4F850704FF000064BF68F79E6
:1007A00048F2800A48F68F7B48F2C00E4FF480680A
:1007B0002AD54FF0020C0CEBC30C674408EB47073B
:1007C000E45BC4F30904A54203D32D1B8D6101D062
:1007D0000BE08E61056835F8236006EA090686F4A9
:1007E000005646EA0A0625F82360520609D50A781B
:1007F000036833F8225005EA0B0545EA0E0523F895
:10080000225084B30A8929E04FF0060C0CEBC30C8C
:10081000674408EB4707E45BC4F30904A54203D32C
:100820002D1B8D6101D00BE08E61056835F82360CA
:1008300006EA090686F4005646EA0A0625F8236009
:10084000520609D40B78026832F8235005EA0B05EA
:1008500045EA0E0522F823502CB14A8949690068FF
:10086000234602F0ECFB2046BDE8F09F2DE9F05F47
:10087000054600680C465FEA426C8B6916460978AB
:10088000B0F850C048F68F774CF280094FF6FF7BE6
:100890004FF4004E4FF4806A4FF0000275D54FF0D0
:1008A000020808EBC108E0440AEB480C30F80C00E1
:1008B000C0F30900834211D91B1AA3610FD073043E
:1008C00007D52B6833F821603E4046EA090623F835
:1008D000216094F82410012949D04CE1A26160788C
:1008E00010B1012813D01AE02868B0F8503018442D
:1008F00000EB0110B0F8041421F4F841A0F804143E
:10090000B0F8041441F40041A0F8041407E028688A
:10091000B0F85030184400EB0110A0F804246178BE
:10092000286811B1012913D01AE0B0F8501008441A
:10093000217800EB0110B0F80C1421F4F841A0F874
:100940000C14B0F80C1441F40041A0F80C1407E0AA
:10095000B0F850100844217800EB0110A0F80C24E6
:1009600021782846FFF7A9FE70047CD403E1616971
:1009700001446161E1690144E1612369216A9942AD
:1009800004D31846091A216205E038E084F82420CF
:1009900009B108462262617811B1012923D02BE008
:1009A0002968B1F850201144227801EB021101F2BC
:1009B000044148B13E280FD84208C30700D0521C5A
:1009C0000BEA82220A8017E00A8822F4F8420A80A1
:1009D0000A8842F40042F5E74209C30600D1521EDC
:1009E0004EEA8222EEE72968B1F8502011442278BD
:1009F00001EB0211A1F8040483B22289B7E04FF0A1
:100A0000060808EBC108E0440AEB480C30F80C007B
:100A1000C0F30900834211D31B1AA3610FD07304E2
:100A200007D42B6833F821603E4046EA090623F8D4
:100A3000216094F82410012954D09CE0A2616078D0
:100A400010B1012815D01CE02868B0F850301844C7
:100A500000EB0110B0F8041421F4F841A0F80414DC
:100A6000B0F8041400E033E041F40041A0F80414AD
:100A700007E02868B0F85030184400EB0110A0F8E7
:100A800004246178286811B1012913D01AE0B0F864
:100A900050100844217800EB0110B0F80C1421F438
:100AA000F841A0F80C14B0F80C1441F40041A0F87F
:100AB0000C1407E0B0F850100844217800EB011046
:100AC000A0F80C2421782846FFF7F7FD700452D4D3
:100AD0002178286830F821203A4042EA090220F8BB
:100AE000212048E0616901446161E1690144E161FB
:100AF0002369216A994203D31846091A216204E046
:100B000009B10846226284F824206278296812B16B
:100B1000012A22D029E0B1F850201144227801EBBB
:100B2000021101F20C4148B13E280FD84208C30718
:100B300000D0521C0BEA82220A8016E00A8822F4B6
:100B4000F8420A800A8842F40042F5E74209C306E7
:100B500000D1521E4EEA8222EEE7B1F85020114435
:100B6000227801EB0211A1F80C04628983B2616959
:100B7000286802F081FA2178286830F8212048F6A8
:100B8000BF731A4082F0300248F280031A4320F803
:100B900021200020BDE8F09F2DE9F04104460F061A
:100BA00001F0070000EB800104EBC1014FF00106EA
:100BB0004FF0000503D581F82960283103E081F862
:100BC000695101F5B47108700A61CB704A7802B1BD
:100BD000C881022B00D10D7194F8A802012809D018
:100BE00084F8A862206801F0E7FC284684F8A8523F
:100BF000BDE8F0810220FBE770B50D4601F0070467
:100C000004EB840100EBC101C1E95F230022C1F8BC
:100C1000842181F8692181F8684101F5B4716A077E
:100C2000006801F0F5FE002070BD70B504460D4669
:100C300001F007006168884201D9012070BD2906D2
:100C40004FF000064FF0010207D500EB800104EBE6
:100C5000C10181F82920283107E005EB850104EB6B
:100C6000C10181F8696101F5B4718A70087094F866
:100C7000A802012807D084F8A822206801F0AFFE5E
:100C8000680702D006E0022070BD04F52C712068D0
:100C900001F069FE84F8A862002070BD70B50D46B1
:100CA00001F0070404EB840100EBC101C1E90F234B
:100CB000012281F84C208B6400234B6481F82920A9
:100CC00001F8284F6A07006801F0A2FE002070BDFD
:100CD0001FB50446006802F0AFF9000402D52046B3
:100CE00000F00CFD206802F0A7F940050CD5206843
:100CF00030F8441F21F480610180204600F01CF987
:100D00000021204600F033F9206802F095F94004F4
:100D100005D5206830F8441F21F480410180206807
:100D200002F08AF9800405D5206830F8441F21F4C8
:100D300000510180206802F07FF9C00414D52068BA
:100D400030F8401F21F004010180206830F8401F76
:100D500021F008010180204600F001F9206830F8F8
:100D6000441F21F480510180206802F065F90005DC
:100D70003ED5216800206A4631F8203022F8103034
:100D8000401CC0B20828F7D331F8400F40F00100F2
:100D90000880206830F8401F21F0010101802068A0
:100DA000B0F844104905FBD530F8441F21F48061A8
:100DB00001800020236832F8101023F82010401C16
:100DC000C0B20828F6D3206830F8401F41F008016F
:100DD0000180206830F8441F21F400610180206800
:100DE00030F8401F41F004010180204600F0F4F883
:100DF000206802F021F9800508D5206830F8441FEA
:100E000021F400710180204600F0ADF8206802F066
:100E100013F9C00505D5206830F8441F21F480710E
:100E200001801FBD2DE9F04186B0040004D094F884
:100E3000A902002520B108E0012006B0BDE8F0813C
:100E400084F8A852204600F059F8032084F8A9023B
:100E5000206801F081FD04F11001142288466846E3
:100E6000FFF7D2F994E80F0001F0DFFC0227C8BBBE
:100E70000021206802F0F8F8002101260EE001EBC5
:100E8000810004EBC00080F8296000F8281FC181B0
:100E9000C57005614561491CC9B2856160688842B9
:100EA000EDD8002111E001EB810004EBC00080F8D7
:100EB000695180F8681180F86B51C0F87851C0F81A
:100EC0007C51491CC9B2C0F8805160688842EAD898
:100ED000142241466846FFF797F994E80F0001F0A5
:100EE00032FD10B184F8A972A6E784F8245084F882
:100EF000A962206801F025FD00209EE708B5006882
:100F00000B49884212D10B48C16941F40001C1610B
:100F1000C069002200F40000009011461420FFF781
:100F20007BFBBDE808401420FFF768BB08BD00004C
:100F3000005C00400010024070B504468068012546
:100F4000022801D0FFF7F7F92946D4F8E80201F0AA
:100F50000AF9D4F8E802BDE8704001F0C6B8D0F84C
:100F6000E80201F0EAB8D0F8E80201F0F0B810B5F4
:100F7000044690F8A80201280BD0012084F8A802AA
:100F800084F82410206802F071F8002084F8A80288
:100F900010BD022010BDD0F8E82200F52C711046DB
:100FA00001F0EDB810B5044690F8A802012810D061
:100FB000012084F8A802206802F02EF801212046C2
:100FC000FFF77AFB206801F0BAFC002084F8A80241
:100FD00010BD022010BD000010B50446D0F8E80294
:100FE00001F00CF9A069002804D00348016841F021
:100FF0000601016010BD000010ED00E02DE9F8438E
:1010000004460078344FC00752D0F8690025C0006C
:1010100008D4F86940F08050F861F869012500F0C3
:10102000805000902D480168C90511D401688046A0
:1010300041F480710160FFF783FA064604E0FFF790
:101040007FFA801B642822D8D8F80000C005F6D5A6
:10105000386A10F4407020D0A18801F440718142B8
:101060001BD0386A1E49012220F440700A60002219
:101070000A603862C00710D0FFF762FA064641F2F4
:10108000883807E0FFF75CFA811B414502D903204D
:10109000BDE8F883386A8007F4D5386A616820F4BF
:1010A0004070084338621DB1F86920F08050F86143
:1010B0002078800705D57868A16820F4404008436F
:1010C00078602078C00605D57868E16820F4800053
:1010D000084378600020DBE7001002400070004009
:1010E000400442422DE9F0470D46040067D0DFF886
:1010F0001881D8F8000000F00700A8420CD2D8F8F8
:10110000001021F007012943C8F80010D8F80000AA
:1011100000F00700A84252D120683C4E810712D54A
:10112000400703D5706840F4E060706020780007E5
:1011300003D5706840F4605070607068A16820F05A
:10114000F000084370602078C00727D0606801284D
:1011500010D03168022810D0890700292FDA716871
:1011600021F0030101437160FFF7EAF9074641F2FC
:1011700088390CE031688903EFE78901EDE7FFF773
:10118000DFF9C11B494502D90320BDE8F08770682B
:10119000616800F00C00B0EB810FF0D1D8F80010BE
:1011A000404601F00701A9420BD9016821F007016F
:1011B00029430160006800F00700A84201D0012027
:1011C000E3E72078400705D57068E16820F4E06027
:1011D000084370602078000706D57068216920F404
:1011E000605040EAC100706000F018F87168084A69
:1011F000C1F30311515CC840064908600648006805
:10120000FFF7BEF90020C0E70020024000100240B6
:1012100008320008C0000020B800002012A085B0ED
:101220000FC88DE80F0014A0144B00680490596893
:10123000134801F00C02042A10D0082A0ED1C1F381
:101240008342C9031DF802000AD5596804AAC1F3F4
:101250004041515C0A4A5043B0FBF1F005B0704781
:1012600008494843FAE70000020304050607080995
:101270000A0B0C0D0E0F10100102000000100240AE
:1012800000127A0000093D002DE9F84F04006FD0EC
:101290002078BE4DC00747D06868C0F381000128A0
:1012A00007D06868C0F38100022809D16868C003CC
:1012B00006D52868800337D560680028E7D033E07A
:1012C0006068B0F5803F0BD010B1B0F5A02F11D001
:1012D000286820F480302860286820F4802002E00C
:1012E000286840F480302860606888B1FFF728F9EA
:1012F000064609E0286840F480202860F0E7FFF700
:101300001FF9801B642873D828688003F7D50BE089
:10131000FFF716F9064604E0FFF712F9801B642870
:10132000F1D828688003F7D42078DFF8648280073A
:101330004FF0010A4FF0000939D5686810F00C0F22
:1013400007D06868C0F38100022809D16868C0032B
:1013500006D42868800714D52069012808D110E038
:101360002069B0B1C8F800A0FFF7EAF8064605E02A
:1013700007E1FFF7E5F8801B0228C4D8286880073A
:10138000F7D52868616920F0F80040EAC1002860BC
:101390000DE0C8F80090FFF7D3F8064604E0FFF729
:1013A000CFF8801B022823D828688007F7D420783C
:1013B00000072CD57748A169D9B1C0F800A0FFF784
:1013C000BFF8064604E0FFF7BBF8801B02280FD8E1
:1013D000686A8007F7D570484FF4FA510068B0FB8F
:1013E000F1F0009000BF0098411E0091FAD20EE08B
:1013F0007CE0C0F80090FFF7A3F8064604E0FFF792
:101400009FF8801B022871D8686A8007F7D420787B
:1014100040075BD5E8690027C00008D4E86940F0C0
:101420008050E861E869012700F0805000905B4837
:101430000168C90511D40168834641F480710160D7
:10144000FFF77EF8064604E0FFF77AF8801B642871
:101450004CD8DBF80000C005F6D5E06801280AD0BA
:1014600008B1052813D0286A20F001002862286AF4
:1014700020F0040002E0286A40F001002862E068E1
:1014800041F2883B88B1FFF75BF8064609E0286A1D
:1014900040F004002862EEE7FFF752F8811B59453F
:1014A0005BD8286A8007F7D50BE0FFF749F80646B6
:1014B00004E0FFF745F8811B59454ED8286A80079C
:1014C000F7D41FB1E86920F08050E861E069A8B363
:1014D0006968C1F38101022946D00228484606D036
:1014E000C8F86000FFF72CF8044639E035E04746BD
:1014F000C8F86000FFF724F8064604E0FFF720F87C
:10150000801B022829D828688001F7D4206AB0F50A
:10151000803F05D16868A16820F400300843686006
:10152000D4E908010843696821F47411084368602C
:10153000C7F860A0FFF704F8044605E023E0FEF7D3
:10154000FFFF001B022808D828688001F7D51AE0A1
:10155000FEF7F6FF001B022802D90320BDE8F88F32
:1015600028688001F4D40EE00128F7D06868226A68
:1015700000F48031914204D1616A00F47010884215
:1015800001D00120EAE70020E8E700000010024057
:101590000000424280044242C0000020007000402F
:1015A00010B5401EB0F1807F01D3012010BD4FF077
:1015B000E02460610F21601701F072FD0020A0613E
:1015C00007202061002010BDFEE7F0B500230A24AB
:1015D000302537261F4610E0B4EB107F02D905EB0B
:1015E000107C01E006EB107C01F813C001EB430C0A
:1015F00000015B1C8CF80170DBB29342ECD3F0BDB0
:1016000070B586B000242848009401940294039495
:10161000816941F010018161816901F0100104913B
:10162000816941F020018161816901F0200104910B
:10163000816941F004018161816901F00401049133
:10164000816941F0080181618069012200F0080090
:10165000164E5503049029463046FEF76CFF0120D4
:10166000CDE9005002250295694630460395FEF704
:1016700077FE4FF44040CDE90004694630460294BD
:10168000FEF76EFE48F2FF708DE8310069460848AB
:10169000FEF766FE4FF6FF708DE83100694605489B
:1016A000FEF75EFE06B070BD001002400010014063
:1016B00000080140000C014010B500220B490C4805
:1016C00000F0F0FB08B1FEF736FE0A49084800F0CA
:1016D000BBFD08B1FEF72FFE054800F00BFE002809
:1016E00003D0BDE81040FEF726BE10BD6400002008
:1016F000C4010020C8000020FEE7FEE72DE9F05FEE
:1017000004464FF0060A4FF0020B4FF480696CE17B
:10171000B0F8441011F00F0639D030F826805FEA97
:1017200008417DD530F8261040F68F72114041F007
:10173000800120F8261006EB860004EBC00595F822
:10174000740105F5B47500286BD0E878022869D0DB
:101750002978206830F8212048F68F731A4048F223
:10176000C0031A4320F821202978206830F821206E
:10177000B0F8503052047DD50BEBC1015A1809EB7B
:101780004201415A8F05BF0D75D02A89D2E0C906A2
:101790002ED4018848F60F72114041F400410180B7
:1017A000206804F12805B0F850202B780BEBC3011A
:1017B0000A4409EB4201405AC0F309006064E16B3E
:1017C0000844E06300212046FEF777FF94F82400E8
:1017D00000289CD0A869002899D194F82400216899
:1017E00040F08000A1F84C00002084F82400FCE0C8
:1017F000018804F5B4750A0521D5B0F850202B787E
:101800000AEBC3010A4409EB4201405A04F52C716A
:10181000C0F30903EB61EA88206801F010FC02E0E4
:10182000A0E067E075E02068018840F68F72114003
:1018300041F0800101802046FFF7ADFBD5E00904AF
:10184000D5D5018840F68F72114041F080010180AA
:101850002068B0F850202B780AEBC3010A4409EB4A
:101860004201405A83059B0DEB6110D0696971B14B
:10187000EA8801E054E052E0206801F0E0FBE96909
:1018800068690844686100212046FEF71FFF206850
:10189000018809052DD4B0F850100844296900F2D8
:1018A0000C4051B13E2910D84A08C90700D0521C3B
:1018B0004FF6FF7101EA82210FE0018821F4F8411F
:1018C0000180018841F4004107E04A09C90600D1BE
:1018D000521E4FF4004141EA8221018020680188B4
:1018E0004BF68F72114081F4405148F2800211434F
:1018F00001807AE02068B0F850202B780AEBC30111
:101900000A4409EB4201415A8F05BF0D16D0EA88FF
:1019100010E0424629462046FEF736FF07460DE016
:101920000AEBC1015A1809EB4201415A8F05BF0D5C
:1019300004D06A893B46696901F081FBE869384453
:10194000E861686938446861A86910B12869B842DB
:1019500004D929782046FEF7B9FE03E0294620681D
:1019600001F056F85FEA08603FD506EB860004EB0D
:10197000C001206830F8262048F60F731A4042F460
:10198000004220F8262091F82B002831032805D0AA
:1019900020B1022825D15FEAC85022D42068B0F8CF
:1019A00050300D780BEBC502134409EB4302805A0B
:1019B0008A69C0F3090082420CD9121A8A610BD0DD
:1019C0004A6902444A61CA691044C861206801F04A
:1019D0001FF80AE000208861E9B22046FEF76DFE9C
:1019E00003E042462046FEF741FF2068B0F844106D
:1019F00009043FF58DAE0020BDE8F09F70477047A9
:101A0000FEF7A4BD30B593B028216846FEF72EFC42
:101A100014210AA8FEF72AFC002401200F94109438
:101A20001194010412948DE8130004904FF4E01017
:101A3000CDE90810022507956846FFF725FC08B197
:101A400072B6FEE70F20CDE90A054FF48060CDE9BC
:101A50000C4002210AA80E94FFF744FB08B172B6AD
:101A6000FEE710200F9012940FA8FFF7C7FA002886
:101A700001D072B6FEE713B030BD704710B5D0F894
:101A8000B42252689047002010BD134610B50A4694
:101A9000002100F021FB002010BD134610B50A46BE
:101AA000002100F0B4FB002010BD10B504468021D9
:101AB00000F092FB2046BDE81040002100F08CBBF6
:101AC00010B505210023C0F894121A46194600F0FB
:101AD00003FB002010BD10B50223C261C0F8943290
:101AE000026213460A46002100F091FB002010BD5F
:101AF00010B504210023C0F894121A46194600F0CC
:101B000086FB002010BD000010B50A46024903A064
:101B100000F0E0F8004810BD880400204849442047
:101B2000436F6E66696700001220088000487047A6
:101B30008400002010B50A46024903A000F0CAF84C
:101B4000004810BD8804002048494420496E74654F
:101B500072666163650000000420088000487047D9
:101B60008000002010B50A46024903A000F0B2F838
:101B7000004810BD8804002053544D6963726F659E
:101B80006C656374726F6E696373000010B50A460A
:101B9000024903A000F09EF8004810BD8804002010
:101BA000456D756C61746F724B6579626F617264BB
:101BB0000000000010B51A2008800A480168001DC6
:101BC0000468001D0068081809D008220649FFF7BC
:101BD000FCFC0549042210312046FFF7F6FC0248C0
:101BE000801E10BDE8F7FF1F9A000020F8B50446DC
:101BF0000020ADF8000048880D46010A082948D2A7
:101C0000DFE801F04704091747473D45D4F8B01213
:101C1000207C0A6819E0207C02260028D4F8B4024F
:101C200005D0C16A68468847014646703EE0816A31
:101C3000F8E7C0B206282CD2DFE800F0030B11153C
:101C4000191DD4F8B002426806E069469047014683
:101C50002CE0D4F8B0028268DAB1207CF5E7D4F841
:101C6000B002C268F8E7D4F8B0020269F4E7D4F829
:101C7000B0024269F0E7D4F8B0028269ECE7207C58
:101C800038B9D4F8B402416B68468847DFE7207C56
:101C900020B129462046FFF708FFF8BDD4F8B4026A
:101CA000016B68468847014607204870BDF8000070
:101CB00048B1EA8852B1824200D90246ADF800200C
:101CC0002046FFF708FFE8880028E6D12046FFF706
:101CD0000FFFF8BD70B5002300281ED00446002574
:101CE00002E06D1CEDB2641C2678002EF9D10224AE
:101CF00004EB450414801278CA545B1C0322CA54B6
:101D000000245B1C06E0CA545B1CDAB28C54521CE3
:101D1000D3B2401C0278002AF5D170BD01004FF00B
:101D2000000004D0012901D0022901D0022070470F
:101D300001207047D0F8B8020021017308467047AF
:101D400070B50446812100F0CBF80025E562D4F897
:101D5000B80218B100F02BFCC4F8B852002070BDD6
:101D60000A2101800048704778010020222101806B
:101D70000048704700010020222101800048704780
:101D800024010020222101800048704748010020E2
:101D900010B5044604230322812100F091F90120AB
:101DA000E062102000F004FCC4F8B80218B1002171
:101DB0000173084610BD022010BD10B5134690F8FF
:101DC0009C42D0F8B822032C07D1147B2CB90124F3
:101DD00014730A46812100F01AFA002010BD000099
:101DE00038B50022D0F8B832ADF8002014460A7891
:101DF00012F0600216D0202A49D14A78022A0ED069
:101E0000032A06D00A2A06D00B2A40D18878186007
:101E100040E001222BE04888000A58603AE00122A5
:101E2000191D25E04A7832B1062A0BD00A2A22D0A1
:101E30000B2A2CD127E090F89C22032A27D10222DA
:101E4000694615E04A882223B3EB122F05D1CA88D0
:101E50003F2A00D93F22124B09E02123B3EB122F76
:101E600015D10F4BCA88183B092A00D909221946F7
:101E7000FFF731FE0EE090F89C22032A07D10122E1
:101E800003F10801F4E790F89C22032A04D0FFF73D
:101E90000CFE0224204638BD88789860FAE70000DE
:101EA0008401002010B580B1D0F8B43213B1002302
:101EB000C0F8B43209B1C0F8B012012180F89C1208
:101EC000027000F0BBF8002010BD022010BD10B55C
:101ED000D0F8C002FEF72AFCBDE81040FFF71EBF95
:101EE00010B5D0F8C002FEF7FBFBBDE81040FFF7CD
:101EF00015BF2DE9F0411746044651B1D4F8B4029C
:101F000042691AB194F89C02032851D00220BDE81E
:101F1000F081D4F89432002504F11400022B03D090
:101F2000042B3AD0C3B33CE0D0E903639E4207D907
:101F3000F11AC1608AB239462046FFF7AEFD12E0C1
:101F40008068B0FBF3F103FB110199B9984211D3FA
:101F5000D4F8981288420DD2002211462046FFF78D
:101F60009CFDC4F8985200231A461946204600F0FA
:101F7000B3F816E0D4F8B402C16829B194F89C0211
:101F8000032801D1204688478021204600F024F90B
:101F90002046FFF795FD04E0FFE78021204600F092
:101FA0001BF994F8A002012804D184F8A05201E0A2
:101FB000204690470020AAE770B51546044649B16F
:101FC000D4F8B40282691AB194F89C02032830D084
:101FD000022070BDD4F8941204F5AA70032902D02F
:101FE00005291ED027E0D0E903318B420BD95B1ABB
:101FF000C3600846834200D303469AB2294620466E
:10200000FFF743FD17E0D4F8B402016929B194F851
:102010009C02032801D1204688472046FFF768FD2F
:1020200009E000200146C4F89402204600F0D4F8EC
:1020300001E020469047002070BD000010B5044626
:1020400015481649C0F8E842C4F8C00201600821EA
:1020500041600221816000218161C1610162FEF75E
:10206000E1FE08B1FEF767F90022D4F8C002182398
:10207000114604F53074FEF701FB5823002280213D
:102080002068FEF7FBFA4FF480730022812120685C
:10209000FEF7F4FA002010BD9C060020005C004012
:1020A0000A0601F07F01D0F8C00201EB810100EBCC
:1020B000C10002D590F82A00704790F86A01704775
:1020C00010B51C461346D0F8C0022246FEF764FD48
:1020D000BDE81040FFF722BE10B5D0F8C002FEF7F1
:1020E0008BFDBDE81040FFF719BE70B50022044615
:1020F00040231146FFF7E4FF40260125C4F8646140
:102100003346002280212046C4F85851FFF7D8FFFB
:102110006662A56184F89C520020C4F89402606055
:10212000C4F8A402D4F8B80228B1D4F8B40200214B
:10213000426820469047002070BD90F89C12042908
:1021400003D190F89D1280F89C120020704710B5C2
:1021500090F89C12032904D1D0F8B412C96901B1D6
:102160008847002010BD01740020704710B5D0F8DA
:10217000C002FEF7FCFEBDE81040FFF7CFBD70B512
:10218000044600F52A70054600F04AF80120C4F81C
:102190009402B4F8AE02C4F8980294F8A82212F09F
:1021A0001F000AD001280DD0022810D002F08001B3
:1021B000204600F011F8002070BD2946204600F0AE
:1021C0009EF8F8E72946204600F0CAF9F3E72946C9
:1021D000204600F01DF9EEE710B5D0F8C002FEF77A
:1021E00024FDBDE81040FFF799BD10B5D0F8C0023E
:1021F000FEF7D8FEBDE81040FFF790BD90F89C12A6
:1022000080F89D12042180F89C120020704710B5C0
:10221000D0F8C002FEF742FDBDE81040FFF77EBDDA
:102220000A7802704A7842708A78CB7802EB0322EF
:1022300042800A794B7902EB032282808A79C9793C
:1022400002EB0121C18070470246002011B1C2F8A3
:10225000B41270470220704710B5D0F8B42202249F
:102260001AB11268904700B90024204610BD000042
:1022700070B50E461E4D897804462970012931D863
:1022800094F89C0202280BD003280FD03146204638
:10229000FFF70BFC29782046BDE87040FFF7EEBB46
:1022A000D9B10320616084F89C0209E071B16068D3
:1022B000884212D0C1B22046FFF7E0FB2978616066
:1022C0002046FFF7C9FF02280CD006E0022084F860
:1022D0009C0220466160FFF7D1FB2046BDE87040BC
:1022E000FFF706BC31462046BDE87040FFF7DDBB76
:1022F000C400002010B5FFF778FF002010BD2DE9C5
:10230000F0410A78002712F0600208D0202A01D09C
:10231000402A70D1D0F8B422926890476DE04A7894
:10232000002301260A2A66D2DFE802F0405D6557E5
:10233000650805652C29FFF759FC5EE0044688888E
:10234000D8B9C888C8B94888802816D200F07F0557
:1023500094F89C02032810D084F89E522946204607
:10236000FFF704FF2046FFF7C3FB1DB1022084F8EE
:102370009C0242E084F89C623FE020463BE0FFF78D
:1023800077FF3AE0CA88012A35D190F89C22012AC9
:1023900004D0022A02D0032A2DD104E0012200F148
:1023A0000801836016E00122011D13E090F89C22D1
:1023B000012A03D0022A01D0032A1CD1CA88022A8A
:1023C00019D1C660D0F8A41209B10321C16002225C
:1023D00000F10C01FFF77FFB0FE0498801290CD1C8
:1023E000C0F8A46211E090F89C22012A08D0022AC9
:1023F00006D0032A04D0FFF758FB3846BDE8F08129
:1024000049880129F9D1C0F8A432FFF771FBF4E73C
:102410002DE9F0410A46044613780027097913F0A4
:1024200060000AD0202801D0402850D1D4F8B4024E
:1024300011468368204698478FE0C3F34110012876
:1024400006D05078D0B301282AD003283FD107E026
:10245000D4F8B402114683682046BDE8F04118471D
:1024600094F89C02022802D0032872D10AE071B3CA
:1024700080296ED02046FFF7AFFE80212046FFF76F
:10248000ABFE6AE0508838B931B1802904D0D088D9
:1024900010B92046FFF7A0FE2046FFF729FB5CE0BD
:1024A00094F89C020228E2D0032852D1508898BBAD
:1024B0004806F1D02046FFF70AFDEDE7FFE794F864
:1024C0009C020026022803D0032842D112E040E0FB
:1024D00009B180293DD1080601F07F0000EB8000A2
:1024E00004EB800101D5143101E001F5AA7102224B
:1024F0000E602AE0080601F00F0000EB800004EBFC
:1025000080000AD5806920B301F07F0000EB8000D5
:1025100004EB800514350BE01FE0D0F85801C0B182
:1025200001F07F0000EB800004EB800505F5AA7543
:1025300041B1802906D02046FFF7B2FD10B101203D
:10254000286000E02E60022229462046FFF7C3FAE9
:1025500003E011462046FFF7A8FA3846BDE8F081AF
:1025600070B5054608780C4610F0600203D0202AAA
:1025700001D0402A16D195F89C22012A03D0022AC4
:1025800001D0032A0ED1207901280BD8D5F8B40246
:10259000826828469047E188014306D12846FFF724
:1025A000A7FA02E02846FFF780FA002070BD7047C6
:1025B00000487047880600202DE9F0470D78002676
:1025C00030F8252048F68F131A40CB78002B79D0AD
:1025D000012B7DD0022B02D0032B76D0012648F2AE
:1025E0008004224320F825200A7830F8223048F66B
:1025F0008F773B401343234320F822300B7B48F274
:10260000C00548F6BF724CF2800C4BF68F79E3B3ED
:102610000B789A4630F8238048F2801308EA0708BE
:1026200048EA030820F82A80B0F8503091F800807A
:10263000034403EB0813B1F8088028F00108A3F85D
:102640000084B0F8503091F80080034403EB081385
:10265000B1F80A8028F00108A3F808844B78002B11
:102660000B7830F823804FEA48487DD0B8F1000F4E
:1026700007DA30F8238008EA070848EA0C0820F84F
:1026800023800B7830F823C000E024E05FEA4C6C34
:1026900007D530F823C00CEA070C4CEA050C20F8EB
:1026A00023C0CB78012B0B7830F8235005EA0205C4
:1026B0007ED085F02002224320F82320AAE001E00A
:1026C00006E002E042F4007289E742F4C06286E765
:1026D00042F4806283E74B7863B3B0F8503091F8EE
:1026E00000C0034403EB0C13B1F806C02CF0010C3E
:1026F000A3F800C40B7830F823C05FEA4C6C07D510
:1027000030F823C00CEA070C4CEA050C20F823C073
:10271000CB78012B06D0097830F82130134083F0B4
:1027200020027CE0097830F821301340234320F860
:10273000213077E0B0F850200B78024402EB03120E
:10274000CB8823F00103A2F80834B0F850200B78AE
:10275000024402EB03120B6902F20C4263B13E2BFE
:1027600012D85D08DB0700E02DE000D06D1C4FF6AD
:10277000FF7303EA85230FE0138823F4F8431380E3
:10278000138843F4004307E05D09DB0600D16D1EAA
:102790004FF4004343EA852313800A7830F822304F
:1027A0005B0408D530F822303B4043EA0C0300E0DC
:1027B0002DE020F82230097830F8212002EA0902C1
:1027C00082F440522BE0B8F1000F07DA30F8238092
:1027D00008EA070848EA0C0820F823800B7830F84C
:1027E00023C05FEA4C6C07D530F823C00CEA070C15
:1027F0004CEA050C20F823C00B7830F8235005EA8A
:10280000090585F44055254320F823508AE72543E0
:1028100020F82350097830F8212002EA09022243E7
:1028200020F821203046BDE8F087002070472DE9D0
:10283000F04391F80C804C780A7848F6BF774BF655
:102840008F7948F2800548F2C0064CF2800C48F6B9
:102850008F73B8F1000F29D0002C30F822404FEAD6
:10286000444448D0002C06DA30F822401C4044EAA8
:102870000C0420F822400A7830F82240640605D57E
:1028800030F822401C40344320F822400A7830F8C7
:1028900022401C4044EA0C0420F822400A7830F818
:1028A00022303B402B4320F8223019E0002C30F836
:1028B00022400CD0640605D530F822401C40344339
:1028C00020F82240097830F821203A400DE06404D5
:1028D00006D530F822401C4044EA0C0420F822407F
:1028E000097830F8212002EA09022A4320F8212041
:1028F0000020BDE8F083002C06DA30F822401C40AE
:1029000044EA0C0420F822400A7830F82240640699
:1029100005D530F822401C40344320F822400A7884
:1029200030F822401C40344320F822400A7830F826
:10293000223003EA09032B4320F82230C2E70020AB
:10294000704700207047012120F8401F00210180BE
:10295000818001820846704730F8401F21F43F41D2
:102960000180002070470020704730B50A7BA2BB71
:102970004A7848F68F75002A0A7848F2800430F8C1
:10298000223015D05B0607D530F822302B4048F2B4
:10299000C0052B4320F82230CA78012A1DD00978BF
:1029A00030F8212048F6BF731A4082F0200211E06F
:1029B0005B0407D530F822302B404CF280052B43C6
:1029C00020F82230097830F821204BF68F731A4016
:1029D00082F44052224320F82120002030BD10B55F
:1029E0004A780978002A48F2800330F8212005D07F
:1029F00048F6BF74224082F0100204E04BF68F7458
:102A0000224082F480521A4320F82120002010BD79
:102A10002DE9F0470C464B78097B06464FF000093C
:102A200048F68F7248F2800A4FF6FF774FF400485D
:102A3000012B09D000296ED0E07802286CD0012843
:102A40006BD00120BDE8F087A5692069854200D9D7
:102A50000546C9B1E17848F28013022923D02078D5
:102A600036F820101140194326F82010206A401B28
:102A70002062207836F82010490661787ED500293A
:102A80007DD001297CD03EE1ABB2E288304661695D
:102A900000F0F2FAB6F850002178304400EB011053
:102AA000A0F80454EAE0216A8142207869D936F816
:102AB00020101140194326F82010206A401B206284
:102AC000207836F82010490661786CD511B10129BB
:102AD00024D02AE0B6F85010314401EB001000F287
:102AE0000C404DB13E2D0FD86908EA0700D0491CB3
:102AF00007EA8121018018E0018821F4F841018072
:102B0000018841F40041F5E76909EA0600D1491E50
:102B100048EA8121EEE79BE1BAE124E2B6F85020D1
:102B2000911901EB0010A0F80C546289ABB2304649
:102B3000616900F0A1FA6069284460612169206A36
:102B4000884202D9401B206202E00546C4F820906A
:102B5000607800287CD1B6F850002178304400EB32
:102B6000011000F204406DB13E2D13D86908EA0748
:102B700000D0491C07EA8121018012E000E19AE0BF
:102B8000BAE084E0018821F4F8410180018841F431
:102B90000041F1E76909EA0600D1491E48EA8121AE
:102BA000EAE7228965E011B1012921D027E0B6F8D2
:102BB0005010314401EB001000F204404DB13E2DA5
:102BC0000FD86908EA0700D0491C07EA8121018073
:102BD00015E0018821F4F8410180018841F40041A9
:102BE000F5E76909EA0600D1491E48EA8121EEE7C6
:102BF000B6F85010314401EB0010A0F804542289BB
:102C0000ABB23046616900F037FA60692844606110
:102C10002169206A884202D9401B206202E00546F1
:102C2000C4F82090607800287DD1B6F85000217853
:102C3000304400EB011000F20C4055B13E2D10D88D
:102C40006908EA0700D0491C07EA812101800FE0EA
:102C500071E0018821F4F8410180018841F40041CC
:102C6000F4E76909EA0600D1491E48EA8121EDE747
:102C70006289ABB23046616900F0FEF9207836F81F
:102C8000201048F6BF72114081F03001BEE136F8E5
:102C9000202048F68F631A4042EA0A0226F82020D4
:102CA000B6F850002278304400EB02108BB2A0F846
:102CB00004342289DEE7B6F85010314401EB0010ED
:102CC00000F20C404DB13E2D0FD86908EA0700D044
:102CD000491C07EA8121018015E0018821F4F841AF
:102CE0000180018841F40041F5E76909EA0600D155
:102CF000491E48EA8121EEE7B6F85020911901EB10
:102D00000010A0F80C546289ABB23046616900F043
:102D1000B3F96069284460612169206A884203D957
:102D2000401B206203E06EE00546C4F82090002DB1
:102D3000A4D0607858B101287FF41FAFB6F85000D6
:102D40002178304400EB0110A0F8045429E7B6F8CC
:102D500050002178304400EB011101F204413E2D76
:102D600006D86808EA0700D0401C07EA802005E082
:102D70006809EA0600D1401E48EA8020088010E772
:102D800011B1012921D027E0B6F85010314401EBF0
:102D9000001000F204404DB13E2D0FD86908EA073B
:102DA00000D0491C07EA8121018015E0018821F447
:102DB000F8410180018841F40041F5E76909EA061C
:102DC00000D1491E48EA8121EEE7B6F8501031449F
:102DD00001EB0010A0F804542289ABB230466169BF
:102DE00000F04AF96069284460612169206A8842DC
:102DF00002D9401B206202E00546C4F82090002D55
:102E000096D0607858B101287FF421AFB6F8501001
:102E10008819217800EB0110A0F80C5428E7B6F8C7
:102E200050002178304400EB011101F20C413E2D9D
:102E300006D86808EA0700D0401C07EA802005E0B1
:102E40006809EA0600D1401E48EA802008800FE7A2
:102E5000A1692069814202D9091AA161B4E008463A
:102E6000C4F81890B0E0088820F4F840088008887A
:102E700040F400400AE03E2874D84208C00700D061
:102E8000521C07EA822001E048EA82200880B5E06F
:102E900093B9B6F850002178304400EB0110216955
:102EA00000F2044069B13E2913D84B08C90700D08D
:102EB0005B1C07EA83210180607888B1012832D049
:102EC0003AE0018821F4F8410180018841F4004191
:102ED000F1E74B09C90600D15B1E48EA8321EAE706
:102EE000B6F850002178304400EB0110216900F25F
:102EF0000C4049B13E290FD84B08C90700D05B1CD4
:102F000007EA8321018017E0018821F4F84101805C
:102F1000018841F40041F5E74B09C90600D15B1E69
:102F200048EA8321EEE7B6F850108819217800EBC3
:102F30000110218AA0F80C14E069A8B3217836F8B2
:102F40002100430401D5430603D444F24003184250
:102F500054D136F82100104048F2C002104326F840
:102F600021004BE03CE0A1692069814202D9091AA5
:102F7000A16102E00846C4F818908BB9B6F8501069
:102F80002278314401EB021101F2044168B13E287C
:102F900013D84208C30700D0521C07EA82220A80D5
:102FA000617889B1012921D028E00A8822F4F84209
:102FB0000A800A8842F40042F1E74209C30600D1C0
:102FC000521E48EA8222EAE7B6F8501022783144CD
:102FD00001EB021101F20C4100287FF44CAF42E7F3
:102FE0004209C0067FF450AF521E4DE7B6F850209C
:102FF0009119227801EB0211A1F80C04207836F81F
:1030000020104BF68F72114081F4405141EA0A01C1
:1030100026F82010002015E50021A0F844104FF4F8
:103020003F41A0F840100020704700000148FDF724
:103030004FBE00009C060020B0F84400704710B559
:1030400000EB42005C0800F5806008D030F8042BEB
:1030500001F8012B120A01F8012B641EF6D1DA07E0
:1030600001D00088087010BD0020704711B9802180
:10307000A0F84C100020704710B55B1C00EB42001C
:103080005B0800F5806009D011F8012B11F8014BA5
:1030900042EA042220F8042B5B1EF5D110BDFEE7A6
:1030A0000907090E002804DB00F1E02080F8001475
:1030B000704700F00F0000F1E02080F8141D704709
:1030C00010B51B4C1B4804F109012278FEF775FE70
:1030D0003220FDF733F92278611C1648FEF76DFEA9
:1030E0003220FDF72BF9227804F159011148FEF73F
:1030F00064FE3220FDF722F92278611C0D48FEF7AC
:103100005CFE3220FDF71AF9227804F10901094822
:10311000FEF753FE3220FDF711F92278611C0548B5
:10312000FEF74BFEBDE810403220FDF707B9000066
:1031300000000020C401002070B51C4C1C4804F1A4
:1031400009012278FEF739FE4FF4FA752846FDF79B
:10315000F5F82278611C1648FEF72FFE2846FDF789
:10316000EDF8227804F151011148FEF726FE2846B9
:10317000FDF7E4F82278611C0D48FEF71EFE284694
:10318000FDF7DCF8227804F109010948FEF715FE85
:103190002846FDF7D3F82278611C0548FEF70DFE9E
:1031A000BDE870403220FDF7C9B8000000000020E3
:1031B000C4010020FDF7D2F9FEF724FCFEF720FA47
:1031C000FEF77AFA0E4C0F4E651401212046FDF7EA
:1031D000ADF930B1002229463046FDF7ACF9FFF7D2
:1031E000ABFF02212046FDF7A1F90028EDD0012216
:1031F00029463046FDF79FF9FFF762FFE5E700003B
:103200000008014000100140000000000000000024
:1032100001020304060708093832000800000020F4
:10322000C40100002801000824330008C401002064
:10323000240E000084010008820812015A1E085A58
:103240001F085A20085A21085A22085A23085A24CB
:10325000085A25087226723C823D13291B1B085907
:10326000041A65041A8D041AB5041A09041A3504DF
:10327000170403090412013202164083042B572657
:103280000201020301031A1A03191F1182105324A9
:10329000F413911D1B0841041AE104819A350C8135
:1032A0001A79141A6D041A85041A61041409022289
:1032B0001301011DE032090459140301021509210B
:1032C00011011401223F160705810304220A091F78
:1032D000240A1007240A1201486912314B0A06F425
:1032E00029CC100E05010906A101050719E029E7FF
:1032F00015281A2501750195088102950175088127
:10330000039505750105081901290591121808038F
:10331000910395067508261A6530111429658112E6
:04332000C0000000E9
:04000005080000ED02
:00000001FF
